8=FIX.4.2|9=333|35=8|49=SENDER1|56=TARGET1|128=FMR|34=1483|129=DeliverToSubID1|52=20170403-13:34:49.842|37=170403-133024-1|11=10331000505866F2=0|41=10331000505866D1|17=1898621189|20=0|150=4|39=4|1=217040332725|55=CNC|48=CNC.N|22=5|54=1|38=94100|40=2|44=69.3300|15=USD|59=0|47=A|32=3|31=1.5 4|30=MKT1|151=0|14=3|6=1.5400|60=20170403-13:34:50.114|21=1|10=095|
8=FIX.4.2|9=333|35=8|49=SENDER1|56=TARGET1|128=FMR|34=1483|129=DeliverToSubID1|52=20170403-13:34:49.842|37=170403-133024-1|11=10331000505866F2-1|41=10331000505866D1|17=1898621189|20=0|150=4|39=4|1=217040332725|55=CNC|48=CNC.N|22=5|54=1|38=94100|40=2|44=69.3300|15=USD|59=0|47=A|32=6|31=1.5 8|30=MKT1|151=0|14=9|6=1.5800|60=20170403-13:34:50.114|21=1|10=095|


