
8=FIX.4.2|9=263|35=D|49=SENDER1|56=TARGET1|52=20170403-13:30:24.281|115=FMR|116=TRADER1|34=1473|11=10331000505866D1|38=94100|55=CNC|22=5|48=CNC.N|54=1|40=2|59=0|44=69.33|21=1|47=A|60=20170403-13:30:24.281|15=USD|526=217040312439-0|25000=2|1=217040332725|100=STRAT1|10=184|

8=FIX.4.2|9=317|35=8|49=TARGET1|56=SENDER1|128=FMR|34=1473|129=TRADER1|52=20170403-13:30:24.063|37=170403-133024-1|11=10331000505866D1|17=1898553344|20=0|150=0|39=0|1=217040332725|55=CNC|48=CNC.N|22=5|54=1|38=94100|40=2|44=69.3300|15=USD|59=0|47=A|32=0|31=0.0000|30=MKT1|151=94100|14=0|6=0.0000|60=20170403-13:30:24.316|21=1|10=051|

8=FIX.4.2|9=209|35=F|49=SENDER1|56=TARGET1|52=20170403-13:34:50.082|115=FMR|116=TRADER1|34=1483|37=170403-133024-1|41=10331000505866D1|11=10331000505866F2|55=CNC|22=5|48=CNC.N|54=1|38=94100|60=20170403-13:34:50.082|10=242|

8=FIX.4.2|9=337|35=8|49=TARGET1|56=SENDER1|128=FMR|34=1482|129=TRADER1|52=20170403-13:34:49.805|37=170403-133024-1|11=10331000505866F2|41=10331000505866D1|17=1898621188|20=0|150=6|39=6|1=217040332725|55=CNC|48=CNC.N|22=5|54=1|38=94100|40=2|44=69.3300|15=USD|59=0|47=A|32=0|31=0.0000|30=MKT1|151=94100|14=0|6=0.0000|60=20170403-13:34:49.804|21=1|10=064|

8=FIX.4.2|9=333|35=8|49=TARGET1|56=SENDER1|128=FMR|34=1483|129=TRADER1|52=20170403-13:34:49.842|37=170403-133024-1|11=10331000505866F2|41=10331000505866D1|17=1898621189|20=0|150=4|39=4|1=217040332725|55=CNC|48=CNC.N|22=5|54=1|38=94100|40=2|44=69.3300|15=USD|59=0|47=A|32=0|31=0.0000|30=MKT1|151=0|14=0|6=0.0000|60=20170403-13:34:50.114|21=1|10=095|

