2018/10/31 07:15:20:349: FIXPump: Received data on connection {SORT} [8=FIX.4.2|9=75|35=A|34=1|49=SORT3|52=20181031-11:15:20:347|56=BOOKDCA_03|98=0|108=30|10=140|]

2018/10/31 07:15:20:350: FIXConnectionData: Sending data on connection {SORT} [8=FIX.4.2|9=0075|35=A|49=BOOKDCA_03|56=SORT3|34=1|52=20181031-11:15:20.349|98=0|108=30|10=238|]

2018/10/31 07:15:50:350: FIXConnectionData: Sending data on connection {SORT} [8=FIX.4.2|9=0063|35=0|49=BOOKDCA_03|56=SORT3|34=2|52=20181031-11:15:50.350|10=189|]

2018/10/31 07:28:20:355: FIXConnectionData: Sending data on connection {SORT} [8=FIX.4.2|9=0064|35=0|49=BOOKDCA_03|56=SORT3|34=27|52=20181031-11:28:20.355|10=251|]

2018/10/31 07:45:50:361: FIXConnectionData: Sending data on connection {SORT} [8=FIX.4.2|9=0064|35=0|49=BOOKDCA_03|56=SORT3|34=62|52=20181031-11:45:50.361|10=249|]

2018/10/31 07:46:20:054: FIXPump: Received data on connection {SORT} [8=FIX.4.2|9=64|35=0|34=63|49=SORT3|52=20181031-11:46:20.053|56=BOOKDCA_03|10=150|]

2018/10/31 07:46:20:361: FIXConnectionData: Sending data on connection {SORT} [8=FIX.4.2|9=0064|35=0|49=BOOKDCA_03|56=SORT3|34=63|52=20181031-11:46:20.361|10=248|]

2018/10/31 08:06:50:369: FIXConnectionData: Sending data on connection {SORT} [8=FIX.4.2|9=0065|35=0|49=BOOKDCA_03|56=SORT3|34=104|52=20181031-12:06:50.369|10=045|]

2018/10/31 08:07:20:215: FIXPump: Received data on connection {SORT} [8=FIX.4.2|9=65|35=0|34=105|49=SORT3|52=20181031-12:07:20.215|56=BOOKDCA_03|10=194|]

2018/10/31 08:18:50:372: FIXConnectionData: Sending data on connection {SORT} [8=FIX.4.2|9=0065|35=0|49=BOOKDCA_03|56=SORT3|34=128|52=20181031-12:18:50.372|10=048|]

2018/10/31 08:18:50:374: FIXPump: Received data on connection {SORT} [8=FIX.4.2|9=65|35=0|34=128|49=SORT3|52=20181031-12:18:50.373|56=BOOKDCA_03|10=209|]
