2018/01/28 06:55:00:483: FIX:ConnectionData: Sending data on connection {EMEA_ABCD2_CLIENT1} [8=FIX.4.2|9=0077|35=A|49=EMEA_DCA_CLIENT1|56=ABCD2DC|34=1|52=20180129-06:55:00.483|98=0|108=30|10=161|]
2018/01/29 06:55:00:483: FIX:ConnectionData: Sending data on connection {EMEA_ABCD2_CLIENT1} [8=FIX.4.2|9=0077|35=A|49=EMEA_DCA_CLIENT1|56=ABCD2DC|34=1|52=20180129-06:55:00.483|98=0|108=30|10=161|]

2018/01/29 06:55:00:686: FIX:Pump: Received data on connection {EMEA_ABCD2_CLIENT1} [8=FIX.4.2|9=77|35=A|49=ABCD2DC|56=EMEA_DCA_CLIENT1|34=1|52=20180129-06:55:00.685|98=0|108=30|10=069|]

2018/01/29 06:55:30:483: FIX:ConnectionData: Sending data on connection {EMEA_ABCD2_CLIENT1} [8=FIX.4.2|9=0065|35=0|49=EMEA_DCA_CLIENT1|56=ABCD2DC|34=2|52=20180129-06:55:30.483|10=120|]

2018/01/29 06:55:30:686: FIX:Pump: Received data on connection {EMEA_ABCD2_CLIENT1} [8=FIX.4.2|9=65|35=0|49=ABCD2DC|56=EMEA_DCA_CLIENT1|34=2|52=20180129-06:55:30.685|10=028|]

2018/01/29 06:56:00:484: FIX:ConnectionData: Sending data on connection {EMEA_ABCD2_CLIENT1}  [8=FIX.4.2|9=0065|35=0|49=EMEA_DCA_CLIENT1|56=ABCD2DC|34=3|52=20180129-06:56:00.484|10=120|]

2018/01/29 06:56:00:686: FIX:Pump: Received data on connection {EMEA_ABCD2_CLIENT1} [8=FIX.4.2|9=65|35=0|49=ABCD2DC|56=EMEA_DCA_CLIENT1|34=3|52=20180129-06:56:00.685|10=027|]

2018/01/29 06:56:30:483: FIX:ConnectionData: Sending data on connection {EMEA_ABCD2_CLIENT1}  [8=FIX.4.2|9=0065|35=0|49=EMEA_DCA_CLIENT1|56=ABCD2DC|34=4|52=20180129-06:56:30.483|10=123|]

2018/01/29 06:56:30:686: FIX:Pump: Received data on connection {EMEA_ABCD2_CLIENT1} [8=FIX.4.2|9=65|35=0|49=ABCD2DC|56=EMEA_DCA_CLIENT1|34=4|52=20180129-06:56:30.685|10=031|]

2018/01/29 06:57:00:483: FIX:ConnectionData: Sending data on connection {EMEA_ABCD2_CLIENT1}  [8=FIX.4.2|9=0065|35=0|49=EMEA_DCA_CLIENT1|56=ABCD2DC|34=5|52=20180129-06:57:00.483|10=122|]

2018/01/29 06:57:00:686: FIX:Pump: Received data on connection {EMEA_ABCD2_CLIENT1} [8=FIX.4.2|9=65.|35=0|49=ABCD2DC|56=EMEA_DCA_CLIENT1|34=5|52=20180129-06:57:00.685|10=030|]
